{
  "_format": "hh-sol-artifact-1",
  "contractName": "Loan",
  "sourceName": "contracts/contracts2/Loan.sol",
  "abi": [
    {
      "inputs": [
        {
          "internalType": "uint256",
          "name": "_amount",
          "type": "uint256"
        }
      ],
      "stateMutability": "nonpayable",
      "type": "constructor"
    },
    {
      "anonymous": false,
      "inputs": [
        {
          "indexed": false,
          "internalType": "uint256",
          "name": "LPId",
          "type": "uint256"
        },
        {
          "indexed": false,
          "internalType": "address",
          "name": "LPProvider",
          "type": "address"
        },
        {
          "indexed": false,
          "internalType": "uint256",
          "name": "LoanAmount",
          "type": "uint256"
        },
        {
          "indexed": false,
          "internalType": "address",
          "name": "LoanTaker",
          "type": "address"
        }
      ],
      "name": "LoanProvided",
      "type": "event"
    },
    {
      "anonymous": false,
      "inputs": [
        {
          "indexed": false,
          "internalType": "address",
          "name": "LoanTaker",
          "type": "address"
        },
        {
          "indexed": false,
          "internalType": "uint256",
          "name": "TotalRepayment",
          "type": "uint256"
        }
      ],
      "name": "LoanRepaid",
      "type": "event"
    },
    {
      "inputs": [],
      "name": "active",
      "outputs": [
        {
          "internalType": "bool",
          "name": "",
          "type": "bool"
        }
      ],
      "stateMutability": "view",
      "type": "function"
    },
    {
      "inputs": [],
      "name": "amount",
      "outputs": [
        {
          "internalType": "uint256",
          "name": "",
          "type": "uint256"
        }
      ],
      "stateMutability": "view",
      "type": "function"
    },
    {
      "inputs": [],
      "name": "isCancel",
      "outputs": [
        {
          "internalType": "bool",
          "name": "",
          "type": "bool"
        }
      ],
      "stateMutability": "view",
      "type": "function"
    },
    {
      "inputs": [
        {
          "internalType": "uint256",
          "name": "_LPId",
          "type": "uint256"
        },
        {
          "internalType": "address",
          "name": "LPProvider",
          "type": "address"
        },
        {
          "internalType": "uint256",
          "name": "LoanPrice",
          "type": "uint256"
        },
        {
          "internalType": "address",
          "name": "LoanTaker",
          "type": "address"
        },
        {
          "internalType": "uint256",
          "name": "_collateralTokenID",
          "type": "uint256"
        },
        {
          "internalType": "contract IERC721",
          "name": "_collateralToken",
          "type": "address"
        }
      ],
      "name": "provideLoan",
      "outputs": [],
      "stateMutability": "payable",
      "type": "function"
    },
    {
      "inputs": [
        {
          "internalType": "uint256",
          "name": "startTime",
          "type": "uint256"
        },
        {
          "internalType": "uint256",
          "name": "rate",
          "type": "uint256"
        },
        {
          "internalType": "uint256",
          "name": "LoanPrice",
          "type": "uint256"
        },
        {
          "internalType": "address",
          "name": "LPProvider",
          "type": "address"
        },
        {
          "internalType": "contract IERC721",
          "name": "_collateralToken",
          "type": "address"
        },
        {
          "internalType": "uint256",
          "name": "_collateralTokenId",
          "type": "uint256"
        }
      ],
      "name": "repayLoan",
      "outputs": [],
      "stateMutability": "nonpayable",
      "type": "function"
    },
    {
      "inputs": [
        {
          "internalType": "address",
          "name": "_from",
          "type": "address"
        },
        {
          "internalType": "address",
          "name": "_to",
          "type": "address"
        },
        {
          "internalType": "uint256",
          "name": "_amount",
          "type": "uint256"
        },
        {
          "internalType": "contract IERC721",
          "name": "_token",
          "type": "address"
        },
        {
          "internalType": "uint256",
          "name": "_tokenId",
          "type": "uint256"
        }
      ],
      "name": "transferAmount",
      "outputs": [
        {
          "internalType": "bool",
          "name": "",
          "type": "bool"
        }
      ],
      "stateMutability": "payable",
      "type": "function"
    },
    {
      "inputs": [
        {
          "internalType": "address",
          "name": "_from",
          "type": "address"
        },
        {
          "internalType": "address",
          "name": "_to",
          "type": "address"
        },
        {
          "internalType": "contract IERC721",
          "name": "_token",
          "type": "address"
        },
        {
          "internalType": "uint256",
          "name": "_tokenId",
          "type": "uint256"
        }
      ],
      "name": "transferToken",
      "outputs": [],
      "stateMutability": "payable",
      "type": "function"
    }
  ],
  "bytecode": "0x608060405234801561001057600080fd5b5060405161082b38038061082b83398101604081905261002f91610037565b600055610053565b60006020828403121561004c5761004c600080fd5b5051919050565b6107c9806100626000396000f3fe6080604052600436106100705760003560e01c80632c54de4f1161004e5780632c54de4f146100d95780636793f5cc146100ec578063aa8c217c146100ff578063b58714d71461012257600080fd5b806302fb0c5e146100755780631bb6167a146100a55780631cb36442146100ba575b600080fd5b34801561008157600080fd5b5060015461008f9060ff1681565b60405161009c9190610396565b60405180910390f35b6100b86100b3366004610416565b610142565b005b3480156100c657600080fd5b5060015461008f90610100900460ff1681565b6100b86100e73660046104a0565b6101f8565b61008f6100fa366004610504565b610286565b34801561010b57600080fd5b5061011560005481565b60405161009c9190610582565b34801561012e57600080fd5b506100b861013d366004610590565b6102ed565b60015460ff1661016d5760405162461bcd60e51b815260040161016490610644565b60405180910390fd5b8334101561018d5760405162461bcd60e51b815260040161016490610688565b6001805460ff1916811790556101a5333083856101f8565b6101b28584868486610286565b507f746adad77a10206aae929ac360b37df30855ea46313666622d20be56085541a5868686866040516101e894939291906106a1565b60405180910390a1505050505050565b6040517f23b872dd00000000000000000000000000000000000000000000000000000000815273ffffffffffffffffffffffffffffffffffffffff8316906323b872dd9061024e908790879086906004016106d6565b600060405180830381600087803b15801561026857600080fd5b505af115801561027c573d6000803e3d6000fd5b5050505050505050565b600034841115806102ac576001805461ffff19166101001790556102ac878786866101f8565b60405160009073ffffffffffffffffffffffffffffffffffffffff88169087156108fc0290889084818181858888f196505050505050505b95945050505050565b60006102fa87878761034e565b90508061030a3086888787610286565b507fc200a1f31dd659e356e0f112c82558e25f49f7b0f84438691cd96f5cb3558823338260405161033c929190610706565b60405180910390a15050505050505050565b60008061035b8542610737565b905063bbf81e008161036d868661074a565b610377919061074a565b610381919061077f565b9150505b9392505050565b8015155b82525050565b602081016103a4828461038c565b92915050565b805b81146103b757600080fd5b50565b80356103a4816103aa565b600073ffffffffffffffffffffffffffffffffffffffff82166103a4565b6103ac816103c5565b80356103a4816103e3565b60006103a4826103c5565b6103ac816103f7565b80356103a481610402565b60008060008060008060c0878903121561043257610432600080fd5b600061043e89896103ba565b965050602061044f89828a016103ec565b955050604061046089828a016103ba565b945050606061047189828a016103ec565b935050608061048289828a016103ba565b92505060a061049389828a0161040b565b9150509295509295509295565b600080600080608085870312156104b9576104b9600080fd5b60006104c587876103ec565b94505060206104d6878288016103ec565b93505060406104e78782880161040b565b92505060606104f8878288016103ba565b91505092959194509250565b600080600080600060a0868803121561051f5761051f600080fd5b600061052b88886103ec565b955050602061053c888289016103ec565b945050604061054d888289016103ba565b935050606061055e8882890161040b565b925050608061056f888289016103ba565b9150509295509295909350565b80610390565b602081016103a4828461057c565b60008060008060008060c087890312156105ac576105ac600080fd5b60006105b889896103ba565b96505060206105c989828a016103ba565b95505060406105da89828a016103ba565b94505060606105eb89828a016103ec565b93505060806105fc89828a0161040b565b92505060a061049389828a016103ba565b601b81526000602082017f4c6f616e2050726f7669646572206973206e6f74206163746976650000000000815291505b5060200190565b602080825281016103a48161060d565b601a81526000602082017f496e636f7272656374206c6f616e20616d6f756e742073656e740000000000008152915061063d565b602080825281016103a481610654565b610390816103c5565b608081016106af828761057c565b6106bc6020830186610698565b6106c9604083018561057c565b6102e46060830184610698565b606081016106e48286610698565b6106f16020830185610698565b6106fe604083018461057c565b949350505050565b604081016107148285610698565b610385602083018461057c565b634e487b7160e01b600052601160045260246000fd5b818103818111156103a4576103a4610721565b81810280821583820485141761076257610762610721565b5092915050565b634e487b7160e01b600052601260045260246000fd5b60008261078e5761078e610769565b50049056fea2646970667358221220d4beeaa8a470cad1658acf9232085a73041fe0bbed9023d61f9a16b6637b051a64736f6c63430008140033",
  "linkReferences": {},
  "deployedLinkReferences": {}
}