{
  "_format": "hh-sol-artifact-1",
  "contractName": "LoanContract",
  "sourceName": "contracts/contracts2/Auction.sol",
  "abi": [
    {
      "inputs": [],
      "name": "ReentrancyGuardReentrantCall",
      "type": "error"
    },
    {
      "anonymous": false,
      "inputs": [
        {
          "indexed": false,
          "internalType": "address",
          "name": "SPProvider",
          "type": "address"
        },
        {
          "indexed": false,
          "internalType": "uint256",
          "name": "rate",
          "type": "uint256"
        },
        {
          "indexed": false,
          "internalType": "uint256",
          "name": "LoanAmount",
          "type": "uint256"
        },
        {
          "indexed": false,
          "internalType": "contract IERC721[]",
          "name": "token",
          "type": "address[]"
        },
        {
          "indexed": false,
          "internalType": "uint256[]",
          "name": "tokenIds",
          "type": "uint256[]"
        }
      ],
      "name": "BorrowProvider",
      "type": "event"
    },
    {
      "anonymous": false,
      "inputs": [
        {
          "indexed": false,
          "internalType": "address",
          "name": "LPProvider",
          "type": "address"
        },
        {
          "indexed": false,
          "internalType": "uint256",
          "name": "rate",
          "type": "uint256"
        },
        {
          "indexed": false,
          "internalType": "uint256",
          "name": "LoanPrice",
          "type": "uint256"
        },
        {
          "indexed": false,
          "internalType": "contract IERC721",
          "name": "token",
          "type": "address"
        },
        {
          "indexed": false,
          "internalType": "uint256",
          "name": "tokenId",
          "type": "uint256"
        }
      ],
      "name": "LoanProviderAdded",
      "type": "event"
    },
    {
      "inputs": [
        {
          "internalType": "address",
          "name": "",
          "type": "address"
        }
      ],
      "name": "LPtoSP",
      "outputs": [
        {
          "internalType": "uint256",
          "name": "",
          "type": "uint256"
        }
      ],
      "stateMutability": "view",
      "type": "function"
    },
    {
      "inputs": [
        {
          "internalType": "address",
          "name": "",
          "type": "address"
        }
      ],
      "name": "SPtoLP",
      "outputs": [
        {
          "internalType": "uint256",
          "name": "",
          "type": "uint256"
        }
      ],
      "stateMutability": "view",
      "type": "function"
    },
    {
      "inputs": [
        {
          "internalType": "address",
          "name": "_SPProvider",
          "type": "address"
        },
        {
          "internalType": "uint256",
          "name": "_rate",
          "type": "uint256"
        },
        {
          "internalType": "uint256",
          "name": "_LoanPrice",
          "type": "uint256"
        },
        {
          "internalType": "contract IERC721[]",
          "name": "token",
          "type": "address[]"
        },
        {
          "internalType": "uint256[]",
          "name": "tokenIds",
          "type": "uint256[]"
        }
      ],
      "name": "addBorrowProvider",
      "outputs": [],
      "stateMutability": "nonpayable",
      "type": "function"
    },
    {
      "inputs": [
        {
          "internalType": "address",
          "name": "_LPProvider",
          "type": "address"
        },
        {
          "internalType": "uint256",
          "name": "_rate",
          "type": "uint256"
        },
        {
          "internalType": "uint256",
          "name": "_LoanPrice",
          "type": "uint256"
        },
        {
          "internalType": "contract IERC721",
          "name": "token",
          "type": "address"
        },
        {
          "internalType": "uint256",
          "name": "tokenId",
          "type": "uint256"
        }
      ],
      "name": "addLoanProvider",
      "outputs": [],
      "stateMutability": "nonpayable",
      "type": "function"
    },
    {
      "inputs": [
        {
          "internalType": "uint256",
          "name": "",
          "type": "uint256"
        }
      ],
      "name": "borrowProviders",
      "outputs": [
        {
          "internalType": "uint256",
          "name": "SPId",
          "type": "uint256"
        },
        {
          "internalType": "address",
          "name": "SPProvider",
          "type": "address"
        },
        {
          "internalType": "uint256",
          "name": "rate",
          "type": "uint256"
        },
        {
          "internalType": "uint256",
          "name": "LoanPrice",
          "type": "uint256"
        },
        {
          "internalType": "uint256",
          "name": "startTime",
          "type": "uint256"
        },
        {
          "internalType": "bool",
          "name": "LoanActive",
          "type": "bool"
        },
        {
          "internalType": "address",
          "name": "LPPrivider",
          "type": "address"
        }
      ],
      "stateMutability": "view",
      "type": "function"
    },
    {
      "inputs": [],
      "name": "borrowerCount",
      "outputs": [
        {
          "internalType": "uint256",
          "name": "",
          "type": "uint256"
        }
      ],
      "stateMutability": "view",
      "type": "function"
    },
    {
      "inputs": [
        {
          "internalType": "uint256",
          "name": "_amount",
          "type": "uint256"
        }
      ],
      "name": "deployLoan",
      "outputs": [],
      "stateMutability": "nonpayable",
      "type": "function"
    },
    {
      "inputs": [],
      "name": "getBorrowProviders",
      "outputs": [
        {
          "components": [
            {
              "internalType": "uint256",
              "name": "SPId",
              "type": "uint256"
            },
            {
              "internalType": "address",
              "name": "SPProvider",
              "type": "address"
            },
            {
              "internalType": "uint256",
              "name": "rate",
              "type": "uint256"
            },
            {
              "internalType": "uint256",
              "name": "LoanPrice",
              "type": "uint256"
            },
            {
              "internalType": "uint256",
              "name": "startTime",
              "type": "uint256"
            },
            {
              "internalType": "bool",
              "name": "LoanActive",
              "type": "bool"
            },
            {
              "internalType": "address",
              "name": "LPPrivider",
              "type": "address"
            },
            {
              "internalType": "contract IERC721[]",
              "name": "collaterals",
              "type": "address[]"
            },
            {
              "internalType": "uint256[]",
              "name": "collateralIds",
              "type": "uint256[]"
            }
          ],
          "internalType": "struct LoanContract.Borrower[]",
          "name": "",
          "type": "tuple[]"
        }
      ],
      "stateMutability": "view",
      "type": "function"
    },
    {
      "inputs": [],
      "name": "getLoanProviders",
      "outputs": [
        {
          "components": [
            {
              "internalType": "uint256",
              "name": "LPId",
              "type": "uint256"
            },
            {
              "internalType": "address",
              "name": "LPProvider",
              "type": "address"
            },
            {
              "internalType": "uint256",
              "name": "rate",
              "type": "uint256"
            },
            {
              "internalType": "uint256",
              "name": "LoanPrice",
              "type": "uint256"
            },
            {
              "internalType": "uint256",
              "name": "startTime",
              "type": "uint256"
            },
            {
              "internalType": "bool",
              "name": "LoanActive",
              "type": "bool"
            },
            {
              "internalType": "address",
              "name": "LoanTaker",
              "type": "address"
            },
            {
              "internalType": "contract IERC721",
              "name": "collateral",
              "type": "address"
            },
            {
              "internalType": "uint256",
              "name": "collateralId",
              "type": "uint256"
            }
          ],
          "internalType": "struct LoanContract.LoanProvider[]",
          "name": "",
          "type": "tuple[]"
        }
      ],
      "stateMutability": "view",
      "type": "function"
    },
    {
      "inputs": [
        {
          "internalType": "uint256",
          "name": "_SPId",
          "type": "uint256"
        }
      ],
      "name": "getaBorrowProvider",
      "outputs": [
        {
          "components": [
            {
              "internalType": "uint256",
              "name": "SPId",
              "type": "uint256"
            },
            {
              "internalType": "address",
              "name": "SPProvider",
              "type": "address"
            },
            {
              "internalType": "uint256",
              "name": "rate",
              "type": "uint256"
            },
            {
              "internalType": "uint256",
              "name": "LoanPrice",
              "type": "uint256"
            },
            {
              "internalType": "uint256",
              "name": "startTime",
              "type": "uint256"
            },
            {
              "internalType": "bool",
              "name": "LoanActive",
              "type": "bool"
            },
            {
              "internalType": "address",
              "name": "LPPrivider",
              "type": "address"
            },
            {
              "internalType": "contract IERC721[]",
              "name": "collaterals",
              "type": "address[]"
            },
            {
              "internalType": "uint256[]",
              "name": "collateralIds",
              "type": "uint256[]"
            }
          ],
          "internalType": "struct LoanContract.Borrower",
          "name": "",
          "type": "tuple"
        }
      ],
      "stateMutability": "view",
      "type": "function"
    },
    {
      "inputs": [
        {
          "internalType": "uint256",
          "name": "_LPId",
          "type": "uint256"
        }
      ],
      "name": "getaLoanProvider",
      "outputs": [
        {
          "components": [
            {
              "internalType": "uint256",
              "name": "LPId",
              "type": "uint256"
            },
            {
              "internalType": "address",
              "name": "LPProvider",
              "type": "address"
            },
            {
              "internalType": "uint256",
              "name": "rate",
              "type": "uint256"
            },
            {
              "internalType": "uint256",
              "name": "LoanPrice",
              "type": "uint256"
            },
            {
              "internalType": "uint256",
              "name": "startTime",
              "type": "uint256"
            },
            {
              "internalType": "bool",
              "name": "LoanActive",
              "type": "bool"
            },
            {
              "internalType": "address",
              "name": "LoanTaker",
              "type": "address"
            },
            {
              "internalType": "contract IERC721",
              "name": "collateral",
              "type": "address"
            },
            {
              "internalType": "uint256",
              "name": "collateralId",
              "type": "uint256"
            }
          ],
          "internalType": "struct LoanContract.LoanProvider",
          "name": "",
          "type": "tuple"
        }
      ],
      "stateMutability": "view",
      "type": "function"
    },
    {
      "inputs": [
        {
          "internalType": "uint256",
          "name": "",
          "type": "uint256"
        }
      ],
      "name": "loanProviders",
      "outputs": [
        {
          "internalType": "uint256",
          "name": "LPId",
          "type": "uint256"
        },
        {
          "internalType": "address",
          "name": "LPProvider",
          "type": "address"
        },
        {
          "internalType": "uint256",
          "name": "rate",
          "type": "uint256"
        },
        {
          "internalType": "uint256",
          "name": "LoanPrice",
          "type": "uint256"
        },
        {
          "internalType": "uint256",
          "name": "startTime",
          "type": "uint256"
        },
        {
          "internalType": "bool",
          "name": "LoanActive",
          "type": "bool"
        },
        {
          "internalType": "address",
          "name": "LoanTaker",
          "type": "address"
        },
        {
          "internalType": "contract IERC721",
          "name": "collateral",
          "type": "address"
        },
        {
          "internalType": "uint256",
          "name": "collateralId",
          "type": "uint256"
        }
      ],
      "stateMutability": "view",
      "type": "function"
    },
    {
      "inputs": [],
      "name": "providerCount",
      "outputs": [
        {
          "internalType": "uint256",
          "name": "",
          "type": "uint256"
        }
      ],
      "stateMutability": "view",
      "type": "function"
    }
  ],
  "bytecode": "0x608060405234801561001057600080fd5b506001600055611fbf806100256000396000f3fe608060405234801561001057600080fd5b50600436106100df5760003560e01c8063788a43081161008c578063a02db9c511610066578063a02db9c51461021b578063d6c56d651461022e578063d8bf23701461024e578063f848d3fa1461026157600080fd5b8063788a4308146101c65780637893c4e7146101e6578063801f8f76146101fb57600080fd5b8063305cdc7d116100bd578063305cdc7d1461013857806347cdf9691461014d57806374c83268146101bd57600080fd5b80630e010595146100e45780632b2ea7cc1461010d5780632ebfd2ea14610122575b600080fd5b6100f76100f2366004610de8565b6102df565b6040516101049190610fc5565b60405180910390f35b61011561046d565b604051610104919061104f565b61012b60065481565b6040516101049190611060565b6101406106c0565b604051610104919061116d565b6101aa61015b366004610de8565b600360208190526000918252604090912080546001820154600283015493830154600484015460059094015492946001600160a01b039283169490939192909160ff8116916101009091041687565b604051610104979695949392919061117e565b61012b60055481565b61012b6101d43660046111fa565b60026020526000908152604090205481565b6101f96101f43660046113ab565b61086f565b005b61012b6102093660046111fa565b60046020526000908152604090205481565b6101f9610229366004611459565b610a16565b61024161023c366004610de8565b610bb5565b60405161010491906114c4565b6101f961025c366004610de8565b610cb2565b6102ca61026f366004610de8565b6001602081905260009182526040909120805491810154600282015460038301546004840154600585015460068601546007909601546001600160a01b039586169694959394929360ff831693610100909304811692169089565b604051610104999897969594939291906114d3565b6103426040518061012001604052806000815260200160006001600160a01b0316815260200160008152602001600081526020016000815260200160001515815260200160006001600160a01b0316815260200160608152602001606081525090565b6000828152600360208181526040928390208351610120810185528154815260018201546001600160a01b039081168285015260028301548287015293820154606082015260048201546080820152600582015460ff8116151560a0830152610100900490931660c08401526006810180548551818502810185019096528086529394919360e086019383018282801561040557602002820191906000526020600020905b81546001600160a01b031681526001909101906020018083116103e7575b505050505081526020016007820180548060200260200160405190810160405280929190818152602001828054801561045d57602002820191906000526020600020905b815481526020019060010190808311610449575b5050505050815250509050919050565b606060006006541161049a5760405162461bcd60e51b815260040161049190611590565b60405180910390fd5b600060065467ffffffffffffffff8111156104b7576104b761121b565b60405190808252806020026020018201604052801561054b57816020015b6105386040518061012001604052806000815260200160006001600160a01b0316815260200160008152602001600081526020016000815260200160001515815260200160006001600160a01b0316815260200160608152602001606081525090565b8152602001906001900390816104d55790505b50905060015b60065481116106ba576000818152600360208181526040928390208351610120810185528154815260018201546001600160a01b039081168285015260028301548287015293820154606082015260048201546080820152600582015460ff8116151560a0830152610100900490931660c08401526006810180548551818502810185019096528086529394919360e086019383018282801561061d57602002820191906000526020600020905b81546001600160a01b031681526001909101906020018083116105ff575b505050505081526020016007820180548060200260200160405190810160405280929190818152602001828054801561067557602002820191906000526020600020905b815481526020019060010190808311610661575b5050505050815250508260018361068c91906115b6565b8151811061069c5761069c6115c9565b602002602001018190525080806106b2906115df565b915050610551565b50919050565b60606000600554116106e45760405162461bcd60e51b81526004016104919061162d565b600060055467ffffffffffffffff8111156107015761070161121b565b60405190808252806020026020018201604052801561079e57816020015b61078b6040518061012001604052806000815260200160006001600160a01b0316815260200160008152602001600081526020016000815260200160001515815260200160006001600160a01b0316815260200160006001600160a01b03168152602001600081525090565b81526020019060019003908161071f5790505b50905060015b60055481116106ba5760008181526001602081815260409283902083516101208101855281548152818401546001600160a01b03908116938201939093526002820154948101949094526003810154606085015260048101546080850152600581015460ff8116151560a086015261010090819004831660c0860152600682015490921660e08501526007015490830152839061084190846115b6565b81518110610851576108516115c9565b60200260200101819052508080610867906115df565b9150506107a4565b6006805490600061087f836115df565b91905055506040518061012001604052806006548152602001866001600160a01b0316815260200185815260200184815260200142815260200160001515815260200160006001600160a01b03168152602001838152602001828152506003600060065481526020019081526020016000206000820151816000015560208201518160010160006101000a8154816001600160a01b0302191690836001600160a01b0316021790555060408201518160020155606082015181600301556080820151816004015560a08201518160050160006101000a81548160ff02191690831515021790555060c08201518160050160016101000a8154816001600160a01b0302191690836001600160a01b0316021790555060e08201518160060190805190602001906109af929190610ced565b5061010082015180516109cc916007840191602090910190610d6a565b509050507ff0c6d703bd355f86d72ce424ee42085ebd2d747332627bebdb01b06eb06293db8585858585604051610a079594939291906116b9565b60405180910390a15050505050565b60058054906000610a26836115df565b91905055506040518061012001604052806005548152602001866001600160a01b0316815260200185815260200184815260200142815260200160001515815260200160006001600160a01b03168152602001836001600160a01b03168152602001828152506001600060055481526020019081526020016000206000820151816000015560208201518160010160006101000a8154816001600160a01b0302191690836001600160a01b0316021790555060408201518160020155606082015181600301556080820151816004015560a08201518160050160006101000a81548160ff02191690831515021790555060c08201518160050160016101000a8154816001600160a01b0302191690836001600160a01b0316021790555060e08201518160060160006101000a8154816001600160a01b0302191690836001600160a01b0316021790555061010082015181600701559050507f70b755ca3e16e8ecd2cc379331126af2eeff7e7869d3b41e29e50e26d8f98b818585858585604051610a07959493929190611712565b610c216040518061012001604052806000815260200160006001600160a01b0316815260200160008152602001600081526020016000815260200160001515815260200160006001600160a01b0316815260200160006001600160a01b03168152602001600081525090565b5060009081526001602081815260409283902083516101208101855281548152928101546001600160a01b03908116928401929092526002810154938301939093526003830154606083015260048301546080830152600583015460ff8116151560a084015261010090819004821660c0840152600684015490911660e08301526007909201549181019190915290565b600081604051610cc190610da5565b610ccb9190611060565b604051809103906000f080158015610ce7573d6000803e3d6000fd5b50505050565b828054828255906000526020600020908101928215610d5a579160200282015b82811115610d5a57825182547fffffffffffffffffffffffff0000000000000000000000000000000000000000166001600160a01b03909116178255602090920191600190910190610d0d565b50610d66929150610db2565b5090565b828054828255906000526020600020908101928215610d5a579160200282015b82811115610d5a578251825591602001919060010190610d8a565b61082b8061175f83390190565b5b80821115610d665760008155600101610db3565b805b8114610dd457600080fd5b50565b8035610de281610dc7565b92915050565b600060208284031215610dfd57610dfd600080fd5b6000610e098484610dd7565b949350505050565b805b82525050565b60006001600160a01b038216610de2565b610e1381610e19565b801515610e13565b6000610de282610e19565b6000610de282610e3b565b610e1381610e46565b6000610e668383610e51565b505060200190565b6000610e78825190565b80845260209384019383018060005b83811015610eac578151610e9b8882610e5a565b975060208301925050600101610e87565b509495945050505050565b6000610e668383610e11565b6000610ecd825190565b80845260209384019383018060005b83811015610eac578151610ef08882610eb7565b975060208301925050600101610edc565b8051600090610120840190610f168582610e11565b506020830151610f296020860182610e2a565b506040830151610f3c6040860182610e11565b506060830151610f4f6060860182610e11565b506080830151610f626080860182610e11565b5060a0830151610f7560a0860182610e33565b5060c0830151610f8860c0860182610e2a565b5060e083015184820360e0860152610fa08282610e6e565b915050610100830151848203610100860152610fbc8282610ec3565b95945050505050565b60208082528101610fd68184610f01565b9392505050565b6000610fd68383610f01565b6000610ff3825190565b8084526020840193508360208202850161100d8560200190565b8060005b85811015611042578484038952815161102a8582610fdd565b94506020830160209a909a0199925050600101611011565b5091979650505050505050565b60208082528101610fd68184610fe9565b60208101610de28284610e11565b80516101208301906110808482610e11565b5060208201516110936020850182610e2a565b5060408201516110a66040850182610e11565b5060608201516110b96060850182610e11565b5060808201516110cc6080850182610e11565b5060a08201516110df60a0850182610e33565b5060c08201516110f260c0850182610e2a565b5060e082015161110560e0850182610e51565b50610100820151610ce7610100850182610e11565b6000611126838361106e565b50506101200190565b6000611139825190565b80845260209384019383018060005b83811015610eac57815161115c888261111a565b975060208301925050600101611148565b60208082528101610fd6818461112f565b60e0810161118c828a610e11565b6111996020830189610e2a565b6111a66040830188610e11565b6111b36060830187610e11565b6111c06080830186610e11565b6111cd60a0830185610e33565b6111da60c0830184610e2a565b98975050505050505050565b610dc981610e19565b8035610de2816111e6565b60006020828403121561120f5761120f600080fd5b6000610e0984846111ef565b634e487b7160e01b600052604160045260246000fd5b601f19601f830116810181811067ffffffffffffffff821117156112575761125761121b565b6040525050565b600061126960405190565b90506112758282611231565b919050565b600067ffffffffffffffff8211156112945761129461121b565b5060209081020190565b610dc981610e3b565b8035610de28161129e565b60006112c56112c08461127a565b61125e565b838152905060208082019084028301858111156112e4576112e4600080fd5b835b8181101561130857806112f988826112a7565b845250602092830192016112e6565b5050509392505050565b600082601f83011261132657611326600080fd5b8135610e098482602086016112b2565b60006113446112c08461127a565b8381529050602080820190840283018581111561136357611363600080fd5b835b8181101561130857806113788882610dd7565b84525060209283019201611365565b600082601f83011261139b5761139b600080fd5b8135610e09848260208601611336565b600080600080600060a086880312156113c6576113c6600080fd5b60006113d288886111ef565b95505060206113e388828901610dd7565b94505060406113f488828901610dd7565b935050606086013567ffffffffffffffff81111561141457611414600080fd5b61142088828901611312565b925050608086013567ffffffffffffffff81111561144057611440600080fd5b61144c88828901611387565b9150509295509295909350565b600080600080600060a0868803121561147457611474600080fd5b600061148088886111ef565b955050602061149188828901610dd7565b94505060406114a288828901610dd7565b93505060606114b3888289016112a7565b925050608061144c88828901610dd7565b6101208101610de2828461106e565b61012081016114e2828c610e11565b6114ef602083018b610e2a565b6114fc604083018a610e11565b6115096060830189610e11565b6115166080830188610e11565b61152360a0830187610e33565b61153060c0830186610e2a565b61153d60e0830185610e51565b61154b610100830184610e11565b9a9950505050505050505050565b601381526000602082017f4e6f20426f72726f772050726f76696465727300000000000000000000000000815291505b5060200190565b60208082528101610de281611559565b634e487b7160e01b600052601160045260246000fd5b81810381811115610de257610de26115a0565b634e487b7160e01b600052603260045260246000fd5b600060001982036115f2576115f26115a0565b5060010190565b601181526000602082017f4e6f204c6f616e2050726f76696465727300000000000000000000000000000081529150611589565b60208082528101610de2816115f9565b6000611647825190565b80845260209384019383018060005b83811015610eac57815161166a8882610e5a565b975060208301925050600101611656565b6000611685825190565b80845260209384019383018060005b83811015610eac5781516116a88882610eb7565b975060208301925050600101611694565b60a081016116c78288610e2a565b6116d46020830187610e11565b6116e16040830186610e11565b81810360608301526116f3818561163d565b90508181036080830152611707818461167b565b979650505050505050565b60a081016117208288610e2a565b61172d6020830187610e11565b61173a6040830186610e11565b6117476060830185610e51565b6117546080830184610e11565b969550505050505056fe608060405234801561001057600080fd5b5060405161082b38038061082b83398101604081905261002f91610037565b600055610053565b60006020828403121561004c5761004c600080fd5b5051919050565b6107c9806100626000396000f3fe6080604052600436106100705760003560e01c80632c54de4f1161004e5780632c54de4f146100d95780636793f5cc146100ec578063aa8c217c146100ff578063b58714d71461012257600080fd5b806302fb0c5e146100755780631bb6167a146100a55780631cb36442146100ba575b600080fd5b34801561008157600080fd5b5060015461008f9060ff1681565b60405161009c9190610396565b60405180910390f35b6100b86100b3366004610416565b610142565b005b3480156100c657600080fd5b5060015461008f90610100900460ff1681565b6100b86100e73660046104a0565b6101f8565b61008f6100fa366004610504565b610286565b34801561010b57600080fd5b5061011560005481565b60405161009c9190610582565b34801561012e57600080fd5b506100b861013d366004610590565b6102ed565b60015460ff1661016d5760405162461bcd60e51b815260040161016490610644565b60405180910390fd5b8334101561018d5760405162461bcd60e51b815260040161016490610688565b6001805460ff1916811790556101a5333083856101f8565b6101b28584868486610286565b507f746adad77a10206aae929ac360b37df30855ea46313666622d20be56085541a5868686866040516101e894939291906106a1565b60405180910390a1505050505050565b6040517f23b872dd00000000000000000000000000000000000000000000000000000000815273ffffffffffffffffffffffffffffffffffffffff8316906323b872dd9061024e908790879086906004016106d6565b600060405180830381600087803b15801561026857600080fd5b505af115801561027c573d6000803e3d6000fd5b5050505050505050565b600034841115806102ac576001805461ffff19166101001790556102ac878786866101f8565b60405160009073ffffffffffffffffffffffffffffffffffffffff88169087156108fc0290889084818181858888f196505050505050505b95945050505050565b60006102fa87878761034e565b90508061030a3086888787610286565b507fc200a1f31dd659e356e0f112c82558e25f49f7b0f84438691cd96f5cb3558823338260405161033c929190610706565b60405180910390a15050505050505050565b60008061035b8542610737565b905063bbf81e008161036d868661074a565b610377919061074a565b610381919061077f565b9150505b9392505050565b8015155b82525050565b602081016103a4828461038c565b92915050565b805b81146103b757600080fd5b50565b80356103a4816103aa565b600073ffffffffffffffffffffffffffffffffffffffff82166103a4565b6103ac816103c5565b80356103a4816103e3565b60006103a4826103c5565b6103ac816103f7565b80356103a481610402565b60008060008060008060c0878903121561043257610432600080fd5b600061043e89896103ba565b965050602061044f89828a016103ec565b955050604061046089828a016103ba565b945050606061047189828a016103ec565b935050608061048289828a016103ba565b92505060a061049389828a0161040b565b9150509295509295509295565b600080600080608085870312156104b9576104b9600080fd5b60006104c587876103ec565b94505060206104d6878288016103ec565b93505060406104e78782880161040b565b92505060606104f8878288016103ba565b91505092959194509250565b600080600080600060a0868803121561051f5761051f600080fd5b600061052b88886103ec565b955050602061053c888289016103ec565b945050604061054d888289016103ba565b935050606061055e8882890161040b565b925050608061056f888289016103ba565b9150509295509295909350565b80610390565b602081016103a4828461057c565b60008060008060008060c087890312156105ac576105ac600080fd5b60006105b889896103ba565b96505060206105c989828a016103ba565b95505060406105da89828a016103ba565b94505060606105eb89828a016103ec565b93505060806105fc89828a0161040b565b92505060a061049389828a016103ba565b601b81526000602082017f4c6f616e2050726f7669646572206973206e6f74206163746976650000000000815291505b5060200190565b602080825281016103a48161060d565b601a81526000602082017f496e636f7272656374206c6f616e20616d6f756e742073656e740000000000008152915061063d565b602080825281016103a481610654565b610390816103c5565b608081016106af828761057c565b6106bc6020830186610698565b6106c9604083018561057c565b6102e46060830184610698565b606081016106e48286610698565b6106f16020830185610698565b6106fe604083018461057c565b949350505050565b604081016107148285610698565b610385602083018461057c565b634e487b7160e01b600052601160045260246000fd5b818103818111156103a4576103a4610721565b81810280821583820485141761076257610762610721565b5092915050565b634e487b7160e01b600052601260045260246000fd5b60008261078e5761078e610769565b50049056fea2646970667358221220d4beeaa8a470cad1658acf9232085a73041fe0bbed9023d61f9a16b6637b051a64736f6c63430008140033a2646970667358221220bfd93918afa5f6cc5c1aa1555f874accbfa347f1d314ca815d5a98b5b01ee23164736f6c63430008140033",
  "linkReferences": {},
  "deployedLinkReferences": {}
}