{
  "_format": "hh-sol-artifact-1",
  "contractName": "NFTMarket",
  "sourceName": "contracts/contracts2/NFTMinting.sol",
  "abi": [
    {
      "inputs": [
        {
          "internalType": "string",
          "name": "_baseTokenURI",
          "type": "string"
        }
      ],
      "stateMutability": "nonpayable",
      "type": "constructor"
    },
    {
      "inputs": [
        {
          "internalType": "address",
          "name": "sender",
          "type": "address"
        },
        {
          "internalType": "uint256",
          "name": "tokenId",
          "type": "uint256"
        },
        {
          "internalType": "address",
          "name": "owner",
          "type": "address"
        }
      ],
      "name": "ERC721IncorrectOwner",
      "type": "error"
    },
    {
      "inputs": [
        {
          "internalType": "address",
          "name": "operator",
          "type": "address"
        },
        {
          "internalType": "uint256",
          "name": "tokenId",
          "type": "uint256"
        }
      ],
      "name": "ERC721InsufficientApproval",
      "type": "error"
    },
    {
      "inputs": [
        {
          "internalType": "address",
          "name": "approver",
          "type": "address"
        }
      ],
      "name": "ERC721InvalidApprover",
      "type": "error"
    },
    {
      "inputs": [
        {
          "internalType": "address",
          "name": "operator",
          "type": "address"
        }
      ],
      "name": "ERC721InvalidOperator",
      "type": "error"
    },
    {
      "inputs": [
        {
          "internalType": "address",
          "name": "owner",
          "type": "address"
        }
      ],
      "name": "ERC721InvalidOwner",
      "type": "error"
    },
    {
      "inputs": [
        {
          "internalType": "address",
          "name": "receiver",
          "type": "address"
        }
      ],
      "name": "ERC721InvalidReceiver",
      "type": "error"
    },
    {
      "inputs": [
        {
          "internalType": "address",
          "name": "sender",
          "type": "address"
        }
      ],
      "name": "ERC721InvalidSender",
      "type": "error"
    },
    {
      "inputs": [
        {
          "internalType": "uint256",
          "name": "tokenId",
          "type": "uint256"
        }
      ],
      "name": "ERC721NonexistentToken",
      "type": "error"
    },
    {
      "anonymous": false,
      "inputs": [
        {
          "indexed": true,
          "internalType": "address",
          "name": "owner",
          "type": "address"
        },
        {
          "indexed": true,
          "internalType": "address",
          "name": "approved",
          "type": "address"
        },
        {
          "indexed": true,
          "internalType": "uint256",
          "name": "tokenId",
          "type": "uint256"
        }
      ],
      "name": "Approval",
      "type": "event"
    },
    {
      "anonymous": false,
      "inputs": [
        {
          "indexed": true,
          "internalType": "address",
          "name": "owner",
          "type": "address"
        },
        {
          "indexed": true,
          "internalType": "address",
          "name": "operator",
          "type": "address"
        },
        {
          "indexed": false,
          "internalType": "bool",
          "name": "approved",
          "type": "bool"
        }
      ],
      "name": "ApprovalForAll",
      "type": "event"
    },
    {
      "anonymous": false,
      "inputs": [
        {
          "indexed": false,
          "internalType": "uint256",
          "name": "_fromTokenId",
          "type": "uint256"
        },
        {
          "indexed": false,
          "internalType": "uint256",
          "name": "_toTokenId",
          "type": "uint256"
        }
      ],
      "name": "BatchMetadataUpdate",
      "type": "event"
    },
    {
      "anonymous": false,
      "inputs": [
        {
          "indexed": false,
          "internalType": "uint256",
          "name": "_tokenId",
          "type": "uint256"
        }
      ],
      "name": "MetadataUpdate",
      "type": "event"
    },
    {
      "anonymous": false,
      "inputs": [
        {
          "indexed": true,
          "internalType": "address",
          "name": "from",
          "type": "address"
        },
        {
          "indexed": true,
          "internalType": "address",
          "name": "to",
          "type": "address"
        },
        {
          "indexed": true,
          "internalType": "uint256",
          "name": "tokenId",
          "type": "uint256"
        }
      ],
      "name": "Transfer",
      "type": "event"
    },
    {
      "inputs": [
        {
          "internalType": "contract IERC721",
          "name": "token",
          "type": "address"
        }
      ],
      "name": "_getTokenIds",
      "outputs": [
        {
          "internalType": "uint256",
          "name": "",
          "type": "uint256"
        }
      ],
      "stateMutability": "view",
      "type": "function"
    },
    {
      "inputs": [
        {
          "internalType": "address",
          "name": "to",
          "type": "address"
        },
        {
          "internalType": "uint256",
          "name": "tokenId",
          "type": "uint256"
        }
      ],
      "name": "approve",
      "outputs": [],
      "stateMutability": "nonpayable",
      "type": "function"
    },
    {
      "inputs": [
        {
          "internalType": "address",
          "name": "owner",
          "type": "address"
        }
      ],
      "name": "balanceOf",
      "outputs": [
        {
          "internalType": "uint256",
          "name": "",
          "type": "uint256"
        }
      ],
      "stateMutability": "view",
      "type": "function"
    },
    {
      "inputs": [
        {
          "internalType": "string",
          "name": "_tokenURI",
          "type": "string"
        },
        {
          "internalType": "uint256",
          "name": "_price",
          "type": "uint256"
        }
      ],
      "name": "createToken",
      "outputs": [
        {
          "internalType": "uint256",
          "name": "",
          "type": "uint256"
        }
      ],
      "stateMutability": "nonpayable",
      "type": "function"
    },
    {
      "inputs": [
        {
          "internalType": "uint256",
          "name": "tokenId",
          "type": "uint256"
        }
      ],
      "name": "getApproved",
      "outputs": [
        {
          "internalType": "address",
          "name": "",
          "type": "address"
        }
      ],
      "stateMutability": "view",
      "type": "function"
    },
    {
      "inputs": [
        {
          "internalType": "address",
          "name": "owner",
          "type": "address"
        },
        {
          "internalType": "address",
          "name": "operator",
          "type": "address"
        }
      ],
      "name": "isApprovedForAll",
      "outputs": [
        {
          "internalType": "bool",
          "name": "",
          "type": "bool"
        }
      ],
      "stateMutability": "view",
      "type": "function"
    },
    {
      "inputs": [],
      "name": "name",
      "outputs": [
        {
          "internalType": "string",
          "name": "",
          "type": "string"
        }
      ],
      "stateMutability": "view",
      "type": "function"
    },
    {
      "inputs": [
        {
          "internalType": "uint256",
          "name": "tokenId",
          "type": "uint256"
        }
      ],
      "name": "ownerOf",
      "outputs": [
        {
          "internalType": "address",
          "name": "",
          "type": "address"
        }
      ],
      "stateMutability": "view",
      "type": "function"
    },
    {
      "inputs": [
        {
          "internalType": "address",
          "name": "from",
          "type": "address"
        },
        {
          "internalType": "address",
          "name": "to",
          "type": "address"
        },
        {
          "internalType": "uint256",
          "name": "tokenId",
          "type": "uint256"
        }
      ],
      "name": "safeTransferFrom",
      "outputs": [],
      "stateMutability": "nonpayable",
      "type": "function"
    },
    {
      "inputs": [
        {
          "internalType": "address",
          "name": "from",
          "type": "address"
        },
        {
          "internalType": "address",
          "name": "to",
          "type": "address"
        },
        {
          "internalType": "uint256",
          "name": "tokenId",
          "type": "uint256"
        },
        {
          "internalType": "bytes",
          "name": "data",
          "type": "bytes"
        }
      ],
      "name": "safeTransferFrom",
      "outputs": [],
      "stateMutability": "nonpayable",
      "type": "function"
    },
    {
      "inputs": [
        {
          "internalType": "address",
          "name": "operator",
          "type": "address"
        },
        {
          "internalType": "bool",
          "name": "approved",
          "type": "bool"
        }
      ],
      "name": "setApprovalForAll",
      "outputs": [],
      "stateMutability": "nonpayable",
      "type": "function"
    },
    {
      "inputs": [
        {
          "internalType": "bytes4",
          "name": "interfaceId",
          "type": "bytes4"
        }
      ],
      "name": "supportsInterface",
      "outputs": [
        {
          "internalType": "bool",
          "name": "",
          "type": "bool"
        }
      ],
      "stateMutability": "view",
      "type": "function"
    },
    {
      "inputs": [],
      "name": "symbol",
      "outputs": [
        {
          "internalType": "string",
          "name": "",
          "type": "string"
        }
      ],
      "stateMutability": "view",
      "type": "function"
    },
    {
      "inputs": [
        {
          "internalType": "contract IERC721",
          "name": "",
          "type": "address"
        }
      ],
      "name": "tokenIds",
      "outputs": [
        {
          "internalType": "uint256",
          "name": "",
          "type": "uint256"
        }
      ],
      "stateMutability": "view",
      "type": "function"
    },
    {
      "inputs": [
        {
          "internalType": "uint256",
          "name": "tokenId",
          "type": "uint256"
        }
      ],
      "name": "tokenURI",
      "outputs": [
        {
          "internalType": "string",
          "name": "",
          "type": "string"
        }
      ],
      "stateMutability": "view",
      "type": "function"
    },
    {
      "inputs": [
        {
          "internalType": "address",
          "name": "from",
          "type": "address"
        },
        {
          "internalType": "address",
          "name": "to",
          "type": "address"
        },
        {
          "internalType": "uint256",
          "name": "tokenId",
          "type": "uint256"
        }
      ],
      "name": "transferFrom",
      "outputs": [],
      "stateMutability": "nonpayable",
      "type": "function"
    }
  ],
  "bytecode": "0x60806040523480156200001157600080fd5b5060405162001a7138038062001a718339810160408190526200003491620001f8565b6040518060400160405280600a8152602001691391950813585c9ad95d60b21b8152506040518060400160405280600d81526020016c105b9d5c9859c813585c9ad95d609a1b81525081600090816200008e919062000336565b5060016200009d828262000336565b5050600a80546001600160a01b03191633179055506009620000c0828262000336565b505062000406565b634e487b7160e01b600052604160045260246000fd5b601f19601f83011681018181106001600160401b0382111715620001065762000106620000c8565b6040525050565b60006200011960405190565b9050620001278282620000de565b919050565b60006001600160401b03821115620001485762000148620000c8565b601f19601f83011660200192915050565b60005b83811015620001765781810151838201526020016200015c565b50506000910152565b60006200019662000190846200012c565b6200010d565b905082815260208101848484011115620001b357620001b3600080fd5b620001c084828562000159565b509392505050565b600082601f830112620001de57620001de600080fd5b8151620001f08482602086016200017f565b949350505050565b6000602082840312156200020f576200020f600080fd5b81516001600160401b038111156200022a576200022a600080fd5b620001f084828501620001c8565b634e487b7160e01b600052602260045260246000fd5b6002810460018216806200026357607f821691505b60208210810362000278576200027862000238565b50919050565b60006200028f6200028c8381565b90565b92915050565b620002a0836200027e565b815460001960089490940293841b1916921b91909117905550565b6000620002ca81848462000295565b505050565b81811015620002ee57620002e5600082620002bb565b600101620002cf565b5050565b601f821115620002ca576000818152602090206020601f850104810160208510156200031b5750805b6200032f6020601f860104830182620002cf565b5050505050565b81516001600160401b03811115620003525762000352620000c8565b6200035e82546200024e565b6200036b828285620002f2565b6020601f831160018114620003a25760008415620003895750858201515b600019600886021c1981166002860217865550620003fe565b600085815260208120601f198616915b82811015620003d45788850151825560209485019460019092019101620003b2565b86831015620003f15784890151600019601f89166008021c191682555b6001600288020188555050505b505050505050565b61165b80620004166000396000f3fe608060405234801561001057600080fd5b50600436106101005760003560e01c806370a0823111610097578063b88d4fde11610066578063b88d4fde14610228578063c87b56dd1461023b578063e985e9c51461024e578063fc97a3031461028a57600080fd5b806370a08231146101e757806372b3b620146101fa57806395d89b411461020d578063a22cb4651461021557600080fd5b806323b872dd116100d357806323b872dd146101785780632b7e12dc1461018b57806342842e0e146101c15780636352211e146101d457600080fd5b806301ffc9a71461010557806306fdde031461012e578063081812fc14610143578063095ea7b314610163575b600080fd5b610118610113366004610f37565b6102aa565b6040516101259190610f62565b60405180910390f35b6101366102ee565b6040516101259190610fc6565b610156610151366004610fe8565b610380565b6040516101259190611023565b610176610171366004611045565b6103a9565b005b610176610186366004611082565b6103b8565b6101b46101993660046110f1565b6001600160a01b03166000908152600d602052604090205490565b6040516101259190611118565b6101766101cf366004611082565b610451565b6101566101e2366004610fe8565b610471565b6101b46101f5366004611126565b61047c565b6101b461020836600461123a565b6104dd565b610136610522565b610176610223366004611289565b610531565b6101766102363660046112bc565b61053c565b610136610249366004610fe8565b610553565b61011861025c36600461133b565b6001600160a01b03918216600090815260056020908152604080832093909416825291909152205460ff1690565b6101b46102983660046110f1565b600d6020526000908152604090205481565b60006001600160e01b031982167f490649060000000000000000000000000000000000000000000000000000000014806102e857506102e882610664565b92915050565b6060600080546102fd90611384565b80601f016020809104026020016040519081016040528092919081815260200182805461032990611384565b80156103765780601f1061034b57610100808354040283529160200191610376565b820191906000526020600020905b81548152906001019060200180831161035957829003601f168201915b5050505050905090565b600061038b826106ff565b506000828152600460205260409020546001600160a01b03166102e8565b6103b4828233610737565b5050565b6001600160a01b0382166103eb576000604051633250574960e11b81526004016103e29190611023565b60405180910390fd5b60006103f8838333610744565b9050836001600160a01b0316816001600160a01b03161461044b578382826040517f64283d7b0000000000000000000000000000000000000000000000000000000081526004016103e2939291906113b0565b50505050565b61046c8383836040518060200160405280600081525061053c565b505050565b60006102e8826106ff565b60006001600160a01b0382166104c15760006040517f89c62b640000000000000000000000000000000000000000000000000000000081526004016103e29190611023565b506001600160a01b031660009081526003602052604090205490565b60078054600091826104ee836113ee565b9091555050600754610500338261084c565b61050a81856108ca565b6000818152600b602052604090208390559392505050565b6060600180546102fd90611384565b6103b433838361091e565b6105478484846103b8565b61044b848484846109d1565b606061055e826106ff565b506000828152600660205260408120805461057890611384565b80601f01602080910402602001604051908101604052809291908181526020018280546105a490611384565b80156105f15780601f106105c6576101008083540402835291602001916105f1565b820191906000526020600020905b8154815290600101906020018083116105d457829003601f168201915b50505050509050600061060f60408051602081019091526000815290565b90508051600003610621575092915050565b81511561065357808260405160200161063b92919061142a565b60405160208183030381529060405292505050919050565b61065c84610ae8565b949350505050565b60006001600160e01b031982167f80ac58cd0000000000000000000000000000000000000000000000000000000014806106c757506001600160e01b031982167f5b5e139f00000000000000000000000000000000000000000000000000000000145b806102e857507f01ffc9a7000000000000000000000000000000000000000000000000000000006001600160e01b03198316146102e8565b6000818152600260205260408120546001600160a01b0316806102e85782604051637e27328960e01b81526004016103e29190611118565b61046c8383836001610b5c565b6000828152600260205260408120546001600160a01b039081169083161561077157610771818486610c9e565b6001600160a01b038116156107af5761078e600085600080610b5c565b6001600160a01b038116600090815260036020526040902080546000190190555b6001600160a01b038516156107de576001600160a01b0385166000908152600360205260409020805460010190555b600084815260026020526040808220805473ffffffffffffffffffffffffffffffffffffffff19166001600160a01b0389811691821790925591518793918516917fddf252ad1be2c89b69c2b068fc378daa952ba7f163c4a11628f55a4df523b3ef91a490505b9392505050565b6001600160a01b038216610876576000604051633250574960e11b81526004016103e29190611023565b600061088483836000610744565b90506001600160a01b0381161561046c5760006040517f73c6ac6e0000000000000000000000000000000000000000000000000000000081526004016103e29190611023565b60008281526006602052604090206108e282826114d6565b507ff8e1a15aba9398e019f0b49df1a4fde98ee17ae345cb5f6b5e2c27f5033e8ce7826040516109129190611118565b60405180910390a15050565b6001600160a01b03821661096057816040517f5b08ba180000000000000000000000000000000000000000000000000000000081526004016103e29190611023565b6001600160a01b0383811660008181526005602090815260408083209487168084529490915290819020805460ff1916851515179055517f17307eab39ab6107e8899845ad3d59bd9653f200f220920489ca2b5937696c31906109c4908590610f62565b60405180910390a3505050565b6001600160a01b0383163b1561044b57604051630a85bd0160e11b81526001600160a01b0384169063150b7a0290610a1390339088908790879060040161159a565b6020604051808303816000875af1925050508015610a4e575060408051601f3d908101601f19168201909252610a4b918101906115e9565b60015b610aae573d808015610a7c576040519150601f19603f3d011682016040523d82523d6000602084013e610a81565b606091505b508051600003610aa65783604051633250574960e11b81526004016103e29190611023565b805181602001fd5b6001600160e01b03198116630a85bd0160e11b14610ae15783604051633250574960e11b81526004016103e29190611023565b5050505050565b6060610af3826106ff565b506000610b0b60408051602081019091526000815290565b90506000815111610b2b5760405180602001604052806000815250610845565b80610b3584610d0c565b604051602001610b4692919061142a565b6040516020818303038152906040529392505050565b8080610b7057506001600160a01b03821615155b15610c61576000610b80846106ff565b90506001600160a01b03831615801590610bac5750826001600160a01b0316816001600160a01b031614155b8015610bde57506001600160a01b0380821660009081526005602090815260408083209387168352929052205460ff16155b15610c1757826040517fa9fbf51f0000000000000000000000000000000000000000000000000000000081526004016103e29190611023565b8115610c5f5783856001600160a01b0316826001600160a01b03167f8c5be1e5ebec7d5bd14f71427d1e84f3dd0314c0f7b2291e5b200ac8c7c3b92560405160405180910390a45b505b50506000908152600460205260409020805473ffffffffffffffffffffffffffffffffffffffff19166001600160a01b0392909216919091179055565b610ca9838383610dad565b61046c576001600160a01b038316610cd65780604051637e27328960e01b81526004016103e29190611118565b81816040517f177e802f0000000000000000000000000000000000000000000000000000000081526004016103e292919061160a565b60606000610d1983610e30565b600101905060008167ffffffffffffffff811115610d3957610d39611147565b6040519080825280601f01601f191660200182016040528015610d63576020820181803683370190505b5090508181016020015b600019017f3031323334353637383961626364656600000000000000000000000000000000600a86061a8153600a8504945084610d6d575b509392505050565b60006001600160a01b0383161580159061065c5750826001600160a01b0316846001600160a01b03161480610e0757506001600160a01b0380851660009081526005602090815260408083209387168352929052205460ff165b8061065c5750506000908152600460205260409020546001600160a01b03908116911614919050565b6000807a184f03e93ff9f4daa797ed6e38ed64bf6a1f0100000000000000008310610e79577a184f03e93ff9f4daa797ed6e38ed64bf6a1f010000000000000000830492506040015b6d04ee2d6d415b85acef81000000008310610ea5576d04ee2d6d415b85acef8100000000830492506020015b662386f26fc100008310610ec357662386f26fc10000830492506010015b6305f5e1008310610edb576305f5e100830492506008015b6127108310610eef57612710830492506004015b60648310610f01576064830492506002015b600a83106102e85760010192915050565b6001600160e01b031981165b8114610f2957600080fd5b50565b80356102e881610f12565b600060208284031215610f4c57610f4c600080fd5b600061065c8484610f2c565b8015155b82525050565b602081016102e88284610f58565b60005b83811015610f8b578181015183820152602001610f73565b50506000910152565b6000610f9e825190565b808452602084019350610fb5818560208601610f70565b601f01601f19169290920192915050565b602080825281016108458184610f94565b80610f1e565b80356102e881610fd7565b600060208284031215610ffd57610ffd600080fd5b600061065c8484610fdd565b60006001600160a01b0382166102e8565b610f5c81611009565b602081016102e8828461101a565b610f1e81611009565b80356102e881611031565b6000806040838503121561105b5761105b600080fd5b6000611067858561103a565b925050602061107885828601610fdd565b9150509250929050565b60008060006060848603121561109a5761109a600080fd5b60006110a6868661103a565b93505060206110b78682870161103a565b92505060406110c886828701610fdd565b9150509250925092565b60006102e882611009565b610f1e816110d2565b80356102e8816110dd565b60006020828403121561110657611106600080fd5b600061065c84846110e6565b80610f5c565b602081016102e88284611112565b60006020828403121561113b5761113b600080fd5b600061065c848461103a565b634e487b7160e01b600052604160045260246000fd5b601f19601f830116810181811067ffffffffffffffff8211171561118357611183611147565b6040525050565b600061119560405190565b90506111a1828261115d565b919050565b600067ffffffffffffffff8211156111c0576111c0611147565b601f19601f83011660200192915050565b82818337506000910152565b60006111f06111eb846111a6565b61118a565b90508281526020810184848401111561120b5761120b600080fd5b610da58482856111d1565b600082601f83011261122a5761122a600080fd5b813561065c8482602086016111dd565b6000806040838503121561125057611250600080fd5b823567ffffffffffffffff81111561126a5761126a600080fd5b61106785828601611216565b801515610f1e565b80356102e881611276565b6000806040838503121561129f5761129f600080fd5b60006112ab858561103a565b92505060206110788582860161127e565b600080600080608085870312156112d5576112d5600080fd5b60006112e1878761103a565b94505060206112f28782880161103a565b935050604061130387828801610fdd565b925050606085013567ffffffffffffffff81111561132357611323600080fd5b61132f87828801611216565b91505092959194509250565b6000806040838503121561135157611351600080fd5b600061135d858561103a565b92505060206110788582860161103a565b634e487b7160e01b600052602260045260246000fd5b60028104600182168061139857607f821691505b6020821081036113aa576113aa61136e565b50919050565b606081016113be828661101a565b6113cb6020830185611112565b61065c604083018461101a565b634e487b7160e01b600052601160045260246000fd5b60006000198203611401576114016113d8565b5060010190565b6000611412825190565b611420818560208601610f70565b9290920192915050565b60006114368285611408565b915061065c8284611408565b60006102e861144e8381565b90565b61145a83611442565b815460001960089490940293841b1916921b91909117905550565b600061046c818484611451565b818110156103b457611495600082611475565b600101611482565b601f82111561046c576000818152602090206020601f850104810160208510156114c45750805b610ae16020601f860104830182611482565b815167ffffffffffffffff8111156114f0576114f0611147565b6114fa8254611384565b61150582828561149d565b6020601f83116001811461153957600084156115215750858201515b600019600886021c1981166002860217865550611592565b600085815260208120601f198616915b828110156115695788850151825560209485019460019092019101611549565b868310156115855784890151600019601f89166008021c191682555b6001600288020188555050505b505050505050565b608081016115a8828761101a565b6115b5602083018661101a565b6115c26040830185611112565b81810360608301526115d48184610f94565b9695505050505050565b80516102e881610f12565b6000602082840312156115fe576115fe600080fd5b600061065c84846115de565b60408101611618828561101a565b610845602083018461111256fea2646970667358221220e71bc11157fc1b900baa24714e83dd03822ea01c994ce7b81e6d077be888ccfc64736f6c63430008140033",
  "linkReferences": {},
  "deployedLinkReferences": {}
}